:020000040800F2
:1000000000500020750A0008990900089F0900089F
:10001000A5090008AB090008B109000800000000AC
:10002000000000000000000000000000B709000808
:10003000C309000800000000CF090008DB09000820
:10004000BD0A0008BD0A0008BD0A0008BD0A000874
:10005000BD0A0008BD0A0008BD0A0008BD0A000864
:10006000BD0A0008BD0A0008BD0A0008BD0A000854
:10007000BD0A0008BD0A0008BD0A0008BD0A000844
:10008000BD0A0008BD0A0008BD0A0008BD0A000834
:10009000E9090008BD0A0008BD0A0008BD0A0008F9
:1000A000BD0A0008BD0A0008BD0A0008BD0A000814
:1000B000BD0A0008BD0A0008BD0A0008BD0A000804
:1000C000BD0A0008BD0A0008BD0A0008BD0A0008F4
:1000D000BD0A0008BD0A0008BD0A0008BD0A0008E4
:1000E000BD0A0008BD0A0008BD0A000800000000A3
:1000F0000000000000000000000000000000000000
:0C01000000000000000000005FF808F1A3
:10010C0010B5054C237833B9044B13B10448AFF345
:10011C0000800123237010BDE001002000000000CE
:10012C000C8D000808B5034B1BB103490348AFF312
:10013C00008008BD00000000E40100200C8D0008C8
:10014C0080B400AF00BF054B1B78012BFBD1034BD8
:10015C0000221A7000BFBD4680BC7047FE02002012
:10016C0080B5ADF5067D00AF302387F80D3207F56D
:10017C00847300221A600433FC220021184608F014
:10018C008BF9002387F80C3200F094FC00F09AFAFB
:10019C0000F026FB00F0EEFA07F088FC012210219B
:1001AC00A94800F09FFF01224FF40051A74800F02E
:1001BC0099FFFFF7C5FFA64B1B7887F80D3200227D
:1001CC004FF40051A14800F08DFF97F80D32643BBD
:1001DC000F2B00F25B8201A252F823F0C30200083D
:1001EC00B50300089906000899060008990600084E
:1001FC0029020008990600089906000899060008CB
:10020C009906000899060008990600088104000860
:10021C0099060008990600086B02000800221021BC
:10022C00894800F05FFF642301228A498A4803F061
:10023C0059F907F5847164230322874803F08EFA79
:10024C0001221021804800F04DFF07F58473032133
:10025C00184607F00BFD034687F80C3217E2002214
:10026C001021794800F03EFF642301227B497A4833
:10027C0003F038F907F5847164230122764803F002
:10028C006DFA01221021704800F02CFF07F58473E1
:10029C001B781A4672496E4808F006F9C7F808022E
:1002AC00D7F808329BB21946694807F0DFFC0346C1
:1002BC0087F80C32EBE100221021634800F012FFAA
:1002CC0007F5827300221A60032207F582731A70F5
:1002DC0007F58271642304225F4803F003F9614936
:1002EC005B4808F0E1F8C7F80802D7F808329BB26F
:1002FC001946574807F0BAFC034687F80C32FFF74B
:10030C001FFF534B1B7887F8173297F817326E2B59
:10031C001FD119E07A2387F8173207F584714FF44F
:10032C00487301224C4803F019FA07F58473012134
:10033C00184607F09BFC034687F80C32FFF700FFCA
:10034C00434B1B7887F8173297F817326E2BE1D096
:10035C0024E097F81732612B20D10023C7F8103214
:10036C0017E007F584714FF448734FF480723A48E4
:10037C0003F0F4F907F584734FF48071184607F015
:10038C0075FC034687F80C32D7F810320133C7F8E6
:10039C001032D7F81032B3F5004FE2D301221021FE
:1003AC00294800F09FFE72E100221021264800F03F
:1003BC0099FE642301222C49274803F093F801226B
:1003CC001021214800F08EFE002210211E4800F062
:1003DC0089FE6423012225491F4803F083F801227A
:1003EC001021194800F07EFE0A2000F0C5FB002207
:1003FC001021154800F076FE642301221749164897
:10040C0003F070F807F5847164230122124803F09D
:10041C00A5F9012210210C4800F064FE07F5847345
:10042C001B78402BE0D11249094808F03DF8C7F879
:10043C000802D7F808329BB21946054807F016FC9B
:10044C00034687F80C3222E10008014000100140FD
:10045C00FC010020908D000830050020938D0008D1
:10046C00248D0008288D0008948D0008958D0008B7
:10047C002C8D000889498A4808F016F8C7F808023C
:10048C00D7F808329BB21946854807F0EFFB0346B4
:10049C0087F80C3207F2031300221A7007F58173E8
:1004AC0000221A7007F2011300221A703B46002238
:1004BC001A600433FC220021184607F0EDFF07F503
:1004CC00807300221A70FFF73BFE754B1A7807F504
:1004DC0080731A7007F580730121184607F0C6FB6C
:1004EC00034687F80C32FFF72BFE6D4B1A7807F298
:1004FC0003131A7007F203130121184607F0B6FB19
:10050C00034687F80C32FFF71BFE654B1A7807F58C
:10051C0081731A7007F581730121184607F0A6FB49
:10052C00034687F80C320023A7F80E3217E0FFF7CA
:10053C0007FEB7F80E325A4A11783A46D154B7F83A
:10054C000E323A4613440121184607F08FFB03463E
:10055C0087F80C32B7F80E320133A7F80E32B7F821
:10056C000E32FF2BE3D9002210214E4800F0BAFDC9
:10057C00642301224C494D4802F0B4FF01221021A2
:10058C00484800F0AFFD00221021464800F0AAFDBB
:10059C00642301224649454802F0A4FF07F20311E7
:1005AC0064230122414802F09DFF07F58171642309
:1005BC0001223E4802F096FF07F20111642301224A
:1005CC003A4802F08FFF39464FF4FA734FF48072B9
:1005DC00364802F087FF01221021324800F082FDDC
:1005EC0034492F4807F060FFC7F80802D7F80832E3
:1005FC009BB219462A4807F039FB034687F80C32A0
:10060C00142000F0B9FA00221021264800F06AFDEF
:10061C00642301222849254802F064FF07F5847100
:10062C0064230122214803F099F8012210211D486E
:10063C0000F058FD07F584731B78402BE0D11F495F
:10064C00174807F031FFC7F80802D7F808329BB2F9
:10065C001946134807F00AFB034687F80C32FFF7DC
:10066C006FFD0F4B1A7807F580731A7007F58073BE
:10067C000121184607F0FAFA034687F80C3207F501
:10068C0080731B786E2B3FF42EAF00E000BF01226D
:10069C004FF400510A4800F025FD8AE5308D000822
:1006AC00FC01002000080140948D0008300500205A
:1006BC00968D0008348D0008938D0008288D000855
:1006CC000010014080B594B000AF07F12803282238
:1006DC000021184607F0E0FE07F1140300221A600F
:1006EC005A609A60DA601A613B1D00221A605A60E7
:1006FC009A60DA600223BB620123BB631023FB63A5
:10070C0002237B640023BB644FF42013FB6407F1CA
:10071C002803184602F0C4F90346002B01D000F060
:10072C00B3F80F237B610223BB610023FB614FF401
:10073C0080633B6200237B6207F11403012118469E
:10074C0002F02EFC0346002B01D000F09DF8102384
:10075C007B604FF480033B613B1D184602F088FD23
:10076C000346002B01D000F08FF800BF5037BD4678
:10077C0080BD000080B500AF174B184A1A60164BAD
:10078C004FF482725A60144B00229A60124B002272
:10079C00DA60114B00221A610F4B00225A610E4B8A
:1007AC004FF400729A610C4B2822DA610A4B00223A
:1007BC001A62094B00225A62074B00229A62064BBE
:1007CC000A22DA62044802F009FE0346002B01D02B
:1007DC0000F05AF800BF80BD300500200030014009
:1007EC0080B586B000AF07F1080300221A605A608A
:1007FC009A60DA60214B9B69204A43F010039361A5
:10080C001E4B9B6903F010037B607B681B4B9B6941
:10081C001A4A43F004039361184B9B6903F00403D9
:10082C003B603B6800224FF40051154800F05AFC25
:10083C0000221021134800F055FC4FF40053BB600C
:10084C000123FB6000233B6102237B6107F108035A
:10085C0019460B4800F0C2FA1023BB600123FB6061
:10086C0000233B6102237B6107F10803194605480D
:10087C0000F0B4FA00BF1837BD4680BD001002402E
:10088C00001001400008014080B400AF72B600BFF8
:10089C00FEE7000080B485B000AF154B9B69144A8D
:1008AC0043F001039361124B9B6903F00103BB609E
:1008BC00BB680F4BDB690E4A43F08053D3610C4B82
:1008CC00DB6903F080537B607B680A4B5B68FB60E1
:1008DC00FB6823F0E063FB60FB6843F00073FB6094
:1008EC00044AFB68536000BF1437BD4680BC704798
:1008FC00001002400000014080B588B000AF786065
:10090C0007F1100300221A605A609A60DA607B6863
:10091C001B681B4A93422FD11A4B9B69194A43F40B
:10092C0080539361174B9B6903F48053FB60FB6806
:10093C00144B9B69134A43F004039361114B9B695D
:10094C0003F00403BB60BB68A0233B6102237B6103
:10095C000323FB6107F1100319460B4800F03EFA24
:10096C0040233B6100237B610023BB6107F1100333
:10097C001946054800F032FA00BF2037BD4680BD4D
:10098C0000300140001002400008014080B400AF6C
:10099C00FEE780B400AFFEE780B400AFFEE780B4A2
:1009AC0000AFFEE780B400AFFEE780B400AF00BF3D
:1009BC00BD4680BC704780B400AF00BFBD4680BC54
:1009CC00704780B400AF00BFBD4680BC704780B597
:1009DC0000AF00F0B5F800BF80BD000080B500AFDF
:1009EC00024800F0C8FC00BF80BD00BF20120020F0
:1009FC0080B586B000AF7860144A154BD31A7B6172
:100A0C007B693B61134B1B68002B02D1114B124AC3
:100A1C001A60104B1A687B6813443A699A4207D2E1
:100A2C0007F002FD03460C221A604FF0FF3309E079
:100A3C00084B1B68FB60074B1A687B681344054A1C
:100A4C001360FB6818461837BD4680BD0050002067
:100A5C0000040000000300202015002080B400AF2B
:100A6C0000BFBD4680BC70470C480D490D4A0023A1
:100A7C0002E0D458C4500433C4188C42F9D30A4A47
:100A8C000A4C002301E013600432A242FBD3FFF7AF
:100A9C00E5FF07F0CFFCFFF763FB70470000002079
:100AAC00E0010020E48D0008E00100201C1500206E
:100ABC00FEE7000080B500AF084B1B68074A43F007
:100ACC0010031360032000F047F90F2000F008F822
:100ADC00FFF7E0FE0023184680BD00BF0020024057
:100AEC0080B582B000AF7860124B1A68124B1B783D
:100AFC0019464FF47A73B3FBF1F3B2FBF3F31846D8
:100B0C0000F05FF90346002B01D001230EE07B6857
:100B1C000F2B0AD8002279684FF0FF3000F027F92C
:100B2C00064A7B681360002300E00123184608374F
:100B3C00BD4680BD000000200800002004000020FD
:100B4C0080B400AF054B1B781A46054B1B68134449
:100B5C00034A136000BFBD4680BC704708000020EC
:100B6C008805002080B400AF024B1B681846BD46B8
:100B7C0080BC70478805002080B584B000AF7860D9
:100B8C00FFF7F0FFB8607B68FB60FB68B3F1FF3FD9
:100B9C0005D00A4B1B781A46FB681344FB6000BF58
:100BAC00FFF7E0FF0246BB68D31AFA689A42F7D8FF
:100BBC0000BF00BF1037BD4680BD00BF080000203D
:100BCC0080B485B000AF78607B6803F00703FB60EE
:100BDC000C4BDB68BB60BA684FF6FF031340BB607D
:100BEC00FB681A02BB68134343F0BF6343F4003342
:100BFC00BB60044ABB68D36000BF1437BD4680BCE1
:100C0C00704700BF00ED00E080B400AF044BDB6820
:100C1C001B0A03F007031846BD4680BC704700BF93
:100C2C0000ED00E080B483B000AF0346FB7197F990
:100C3C000730002B0BDBFB7903F01F02064997F9F9
:100C4C0007305B09012000FA02F241F8232000BFB3
:100C5C000C37BD4680BC704700E100E080B483B027
:100C6C0000AF03463960FB7197F90730002B0ADBA4
:100C7C003B68DAB20C4997F907301201D2B20B4437
:100C8C0083F800230AE03B68DAB20849FB7903F0E9
:100C9C000F03043B1201D2B20B441A7600BF0C377F
:100CAC00BD4680BC704700BF00E100E000ED00E0F5
:100CBC0080B489B000AFF860B9607A60FB6803F06B
:100CCC000703FB61FB69C3F10703042B28BF042353
:100CDC00BB61FB690433062B02D9FB69033B00E0C3
:100CEC0000237B614FF0FF32BB6902FA03F3DA4356
:100CFC00BB681A407B699A404FF0FF317B6901FA5F
:100D0C0003F3D9437B680B40134318462437BD4685
:100D1C0080BC704780B582B000AF78607B68013BC7
:100D2C00B3F1807F01D301230FE00A4A7B68013BBA
:100D3C0053600F214FF0FF30FFF790FF054B00225F
:100D4C009A60044B07221A60002318460837BD46E8
:100D5C0080BD00BF10E000E080B582B000AF7860CD
:100D6C007868FFF72DFF00BF0837BD4680BD80B502
:100D7C0086B000AF0346B9607A60FB7300237B61D9
:100D8C00FFF742FF78617A68B9687869FFF790FFDE
:100D9C00024697F90F3011461846FFF75FFF00BF68
:100DAC001837BD4680BD80B582B000AF0346FB71DD
:100DBC0097F907301846FFF735FF00BF0837BD46D7
:100DCC0080BD80B582B000AF78607868FFF7A2FF75
:100DDC00034618460837BD4680BD000080B48BB072
:100DEC0000AF7860396000237B6200233B6269E1CD
:100DFC0001227B6A02FA03F3FB613B681B68FA6908
:100E0C001340BB61BA69FB699A4240F058813B6858
:100E1C005B689A4A93425ED0984A934275D8984A36
:100E2C00934258D0964A93426FD8964A934252D0E6
:100E3C00944A934269D8944A93424CD0924A934232
:100E4C0063D8924A934246D0904A93425DD8122B73
:100E5C002AD8122B59D801A252F823F0E30E00081D
:100E6C00BD0E0008CF0E0008110F0008170F000868
:100E7C00170F0008170F0008170F0008170F0008AE
:100E8C00170F0008170F0008170F0008170F00089E
:100E9C00170F0008170F0008170F0008170F00088E
:100EAC00C50E0008D90E0008794A934213D02CE0E5
:100EBC003B68DB683B6229E03B68DB6804333B62E0
:100ECC0024E03B68DB6808333B621FE03B68DB686F
:100EDC000C333B621AE03B689B68002B02D1042365
:100EEC003B6213E03B689B68012B05D108233B62F6
:100EFC007B68FA691A6109E008233B627B68FA692E
:100F0C005A6103E000233B6200E000BFBB69FF2B8A
:100F1C0001D87B6801E07B6804337B61BB69FF2BE4
:100F2C0002D87B6A9B0002E07B6A083B9B003B611A
:100F3C007B691A680F213B6901FA03F3DB431A4002
:100F4C00396A3B6901FA03F31A437B691A603B68FF
:100F5C005B6803F08053002B00F0B1804D4B9B6914
:100F6C004C4A43F0010393614A4B9B6903F0010324
:100F7C00BB60BB68484A7B6A9B08023352F823303B
:100F8C00FB607B6A03F003039B000F2202FA03F35E
:100F9C00DB43FA681340FB607B68404A934213D0F2
:100FAC007B683F4A93420DD07B683E4A934207D000
:100FBC007B683D4A934201D1032306E0042304E0FD
:100FCC00022302E0012300E000237A6A02F003020C
:100FDC0092009340FA681343FB602F497B6A9B088D
:100FEC000233FA6841F823203B685B6803F48033D2
:100FFC00002B06D02D4B1A682C49BB6913430B6090
:10100C0006E02A4B1A68BB69DB43284913400B6086
:10101C003B685B6803F40033002B06D0234B5A6803
:10102C002249BB6913434B6006E0204B5A68BB69ED
:10103C00DB431E4913404B603B685B6803F4801331
:10104C00002B06D0194B9A681849BB6913438B6067
:10105C0006E0164B9A68BB69DB43144913408B605E
:10106C003B685B6803F40013002B21D00F4BDA684C
:10107C000E49BB691343CB6021E000BF0000321066
:10108C00000031100000221000002110000012108E
:10109C000000111000100240000001400008014047
:1010AC00000C0140001001400014014000040140FC
:1010BC000B4BDA68BB69DB4309491340CB607B6A95
:1010CC0001337B623B681A687B6A22FA03F3002BBC
:1010DC007FF48EAE00BF00BF2C37BD4680BC70477E
:1010EC000004014080B483B000AF78600B467B8075
:1010FC0013467B707B78002B03D07A887B681A614F
:10110C0003E07B881A047B681A6100BF0C37BD466C
:10111C0080BC7047F0B58BB006AF78607B68002B55
:10112C0001D10123FDE07B6893F8A932DBB2002BDF
:10113C0006D17B68002283F8A822786806F0CAFEE4
:10114C007B68032283F8A9227B681B68184602F08F
:10115C00D7FE7B681B683B607E686D4606F1100409
:10116C000FCC0FC523682B60331D0ECB386802F0F3
:10117C00A1FE0346002B05D07B68022283F8A9222E
:10118C000123CEE07B681B680021184602F0D2FEDA
:10119C000023FB734CE0FB7B79685A1C13469B00C5
:1011AC001344DB000B44013301221A70FB7B79687A
:1011BC005A1C13469B001344DB000B44FA7B1A7039
:1011CC00FA7BFB7B98B2796813469B001344DB00D7
:1011DC000B44363302461A80FB7B79685A1C134643
:1011EC009B001344DB000B44033300221A70FA7B80
:1011FC00796813469B001344DB000B443833002200
:10120C001A60FA7B796813469B001344DB000B448D
:10121C003C3300221A60FA7B796813469B00134416
:10122C00DB000B44403300221A60FB7B0133FB7361
:10123C00FA7B7B685B689A42ADD30023FB7344E076
:10124C00FA7B796813469B001344DB000B4403F2D2
:10125C00691300221A70FA7B796813469B001344B9
:10126C00DB000B4403F5B473FA7B1A70FA7B7968D4
:10127C0013469B001344DB000B4403F26B13002258
:10128C001A70FA7B796813469B001344DB000B44FD
:10129C0003F5BC7300221A60FA7B796813469B0035
:1012AC001344DB000B4403F5BE7300221A60FA7B77
:1012BC00796813469B001344DB000B4403F5C073A1
:1012CC0000221A60FB7B0133FB73FA7B7B685B6843
:1012DC009A42B5D37B681B683B607E686D4606F10D
:1012EC0010040FCC0FC523682B60331D0ECB386850
:1012FC0002F02CFE0346002B05D07B68022283F8FB
:10130C00A92201230DE07B68002283F824207B684E
:10131C00012283F8A9227B681B68184604F09DFF04
:10132C00002318461437BD46F0BD80B582B000AF1F
:10133C0078607B6893F8A832012B01D1022316E068
:10134C007B68012283F8A8227B681B68184602F090
:10135C00C1FD0121786807F030F87B681B681846DE
:10136C0004F071FF7B68002283F8A8220023184642
:10137C000837BD4680BD80B588B000AF78607B680B
:10138C001B68184604F073FF034603F40043B3F5DF
:10139C00004F02D1786800F061FB7B681B6818462F
:1013AC0004F065FF034603F48063B3F5806F12D13C
:1013BC007B681B68B3F844309AB27B681B6822F4D4
:1013CC00806292B2A3F84420786806F0FEFD0021FA
:1013DC00786800F025F97B681B68184604F047FF15
:1013EC00034603F48043B3F5804F0BD17B681B6835
:1013FC00B3F844309AB27B681B6822F4804292B2F4
:10140C00A3F844207B681B68184604F030FF0346A1
:10141C0003F40053B3F5005F0BD17B681B68B3F882
:10142C0044309AB27B681B6822F4005292B2A3F843
:10143C0044207B681B68184604F019FF034603F42C
:10144C008053B3F5805F26D17B681B68B3F84030BE
:10145C009AB27B681B6822F0040292B2A3F8402077
:10146C007B681B68B3F840309AB27B681B6822F02B
:10147C00080292B2A3F84020786806F0DFFD7B6882
:10148C001B68B3F844309AB27B681B6822F4805214
:10149C0092B2A3F844207B681B68184604F0E7FE60
:1014AC00034603F40063B3F5006F40F0848000231F
:1014BC00FB7711E07B681B681A46FB7F9B001A4484
:1014CC00FB7F128892B25B0007F120010B4423F8DA
:1014DC00142CFB7F0133FB77FB7F072BEAD97B684E
:1014EC001B68B3F840309AB27B681B6842F001026B
:1014FC0092B2A3F840207B681B68B3F840309AB2D4
:10150C007B681B6822F0010292B2A3F8402000BF56
:10151C007B681B68B3F844309BB203F48063002BE8
:10152C00F6D07B681B68B3F844309AB27B681B68B2
:10153C0022F4806292B2A3F844200023FB7710E0DF
:10154C00FB7F7A6812681146FA7F92000A445B00AE
:10155C0007F120010B4433F8143C1380FB7F01335B
:10156C00FB77FB7F072BEBD97B681B68B3F840300C
:10157C009AB27B681B6842F0080292B2A3F8402032
:10158C007B681B68B3F844309AB27B681B6822F402
:10159C00006292B2A3F844207B681B68B3F8403019
:1015AC009AB27B681B6842F0040292B2A3F8402006
:1015BC00786806F029FD7B681B68184604F057FE16
:1015CC00034603F40073B3F5007F0ED17B681B68F0
:1015DC00B3F844309AB27B681B6822F4007292B262
:1015EC00A3F84420786806F0E2FC7B681B68184678
:1015FC0004F03DFE034603F48073B3F5807F0BD1FA
:10160C007B681B68B3F844309AB27B681B6822F481
:10161C00807292B2A3F8442000BF2037BD4680BD33
:10162C0080B582B000AF78600B46FB707B6893F896
:10163C00A832012B01D1022313E07B68012283F82D
:10164C00A8227B68FA7883F824207B681B68FA78D8
:10165C001146184604F0E4FD7B68002283F8A822AA
:10166C00002318460837BD4680BD80B584B000AF56
:10167C007860084611461A460346FB700B463B80C1
:10168C001346BB700023FB7297F90330002B0EDA64
:10169C00FB7803F007035A1C13469B001344DB0032
:1016AC007A681344FB60FB6801225A700EE0FB78E9
:1016BC0003F0070213469B001344DB0003F5B473DD
:1016CC007A681344FB60FB6800225A70FB7803F0C5
:1016DC000703DAB2FB681A703A88FB681A61FB6878
:1016EC00BA78DA70FB685B78002B04D0FB681B7847
:1016FC009AB2FB68DA81BB78022B02D1FB6800221C
:10170C001A717B6893F8A832012B01D102230EE0E9
:10171C007B68012283F8A8227B681B68F96818464D
:10172C0002F034FC7B68002283F8A822FB7A18466E
:10173C001037BD4680BD80B584B000AF78600B46D5
:10174C00FB7097F90330002B0EDAFB7803F00703DC
:10175C005A1C13469B001344DB007A681344FB604D
:10176C00FB6801225A700EE0FB7803F00702134667
:10177C009B001344DB0003F5B4737A681344FB60DD
:10178C00FB6800225A70FB7803F00703DAB2FB689F
:10179C001A707B6893F8A832012B01D102230EE05A
:1017AC007B68012283F8A8227B681B68F9681846BD
:1017BC0002F056FF7B68002283F8A822002318460B
:1017CC001037BD4680BD80B586B000AFF8607A603A
:1017DC003B600B46FB72FB7A03F0070213469B003F
:1017EC001344DB0003F5B473FA6813447B617B6923
:1017FC007A685A617B693A689A617B690022DA617E
:10180C007B6900225A70FB7A03F00703DAB27B691A
:10181C001A70FB7A03F00703002B06D1FB681B68D8
:10182C007969184603F008F905E0FB681B687969CB
:10183C00184603F001F9002318461837BD4680BD41
:10184C0080B483B000AF78600B46FB70FB7803F07C
:10185C000702796813469B001344DB000B4403F525
:10186C00C2731B6818460C37BD4680BC704780B5E8
:10187C0086B000AFF8607A603B600B46FB72FB7A77
:10188C0003F007035A1C13469B001344DB00FA6851
:10189C0013447B617B697A685A617B693A689A6107
:1018AC007B69012283F824207B693A681A627B6980
:1018BC000022DA617B6901225A70FB7A03F007037C
:1018CC00DAB27B691A70FB7A03F00703002B06D19E
:1018DC00FB681B687969184603F0AEF805E0FB68F5
:1018EC001B687969184603F0A7F8002318461837C7
:1018FC00BD4680BD80B584B000AF78600B46FB70F0
:10190C00FB7803F007027B685B689A4201D90123DC
:10191C004CE097F90330002B0EDAFB7803F0070349
:10192C005A1C13469B001344DB007A681344FB607B
:10193C00FB6801225A700CE0FA7813469B001344A2
:10194C00DB0003F5B4737A681344FB60FB68002278
:10195C005A70FB6801229A70FB7803F00703DAB225
:10196C00FB681A707B6893F8A832012B01D1022313
:10197C001CE07B68012283F8A8227B681B68F9684D
:10198C00184604F050FBFB7803F00703002B08D13A
:10199C007B681A687B6803F52C731946104604F0B3
:1019AC0075FC7B68002283F8A822002318461037A8
:1019BC00BD4680BD80B584B000AF78600B46FB702F
:1019CC00FB7803F00F027B685B689A4201D9012314
:1019DC0040E097F90330002B0EDAFB7803F0070395
:1019EC005A1C13469B001344DB007A681344FB60BB
:1019FC00FB6801225A700EE0FB7803F007021346D5
:101A0C009B001344DB0003F5B4737A681344FB604A
:101A1C00FB6800225A70FB6800229A70FB7803F076
:101A2C000703DAB2FB681A707B6893F8A832012BB3
:101A3C0001D102230EE07B68012283F8A8227B6887
:101A4C001B68F968184604F03EFB7B68002283F89B
:101A5C00A822002318461037BD4680BD80B58EB035
:101A6C0000AF7860ECE27B681B68B3F84430FB8510
:101A7C00FB8DDBB203F00F0387F82D3097F82D3078
:101A8C00002B40F06181FB8D03F01003002B52D131
:101A9C007B681B681B889BB223F4E14323F0700323
:101AAC00FB817B681A68FB896FEA43436FEA5343F7
:101ABC009BB213807B6828337B627B681B68B3F80E
:101ACC0050309BB21A467B6A1B78DB0013440233FE
:101ADC005B007A681268134403F580631B88C3F3B8
:101AEC0009027B6ADA617B6A5A697B6ADB691A4490
:101AFC007B6A5A610021786806F03FFA7B6893F89C
:101B0C002430DBB2002B00F09B827B6A9B69002B9C
:101B1C0040F096827B6893F82430DBB263F07F034D
:101B2C00DAB27B681B6892B2A3F84C207B68002267
:101B3C0083F8242084E27B6803F5B4737B627B68B2
:101B4C001B681B887B857B8D03F40063002B34D0D2
:101B5C007B681B68B3F850309BB21A467B6A1B78C3
:101B6C00DB00134406335B007A681268134403F5F8
:101B7C0080631B88C3F309027B6ADA617B6818688F
:101B8C007B6803F52C717B6ADA887B6ADB699BB214
:101B9C0004F0CCFB7B681B681B889AB240F68F73F1
:101BAC0013403B827B681B683A8A42F0800292B2F7
:101BBC001A80786806F0B4F942E2B7F92A30002BA3
:101BCC0080F23E827B681B681B889AB240F68F734A
:101BDC001340BB837B681B68BA8B42F0800292B2C5
:101BEC001A807B681B68B3F850309BB21A467B6A2C
:101BFC001B78DB00134406335B007A6812681344CD
:101C0C0003F580631B88C3F309027B6ADA617B6A84
:101C1C00DB69002B19D07B6A5B69002B15D07B68C4
:101C2C0018687B6A59697B6ADA887B6ADB699BB2C4
:101C3C0004F07CFB7B6A5A697B6ADB691A447B6A19
:101C4C005A610021786806F07DF97B681B681B8857
:101C5C009BB203F40063002B40F0F2817B681B689D
:101C6C00BB617B681B68B3F850309BB21A46BB69EA
:101C7C001344BB61BB6903F20C437B617B6A1B6938
:101C8C00002B12D17B691B889BB223F4F8439AB2C8
:101C9C007B691A807B691B889BB26FEA43436FEAAE
:101CAC0053439AB27B691A802FE07B6A1B693E2BE7
:101CBC0013D87B6A1B695B083B637B6A1B6903F067
:101CCC000103002B02D03B6B01333B633B6B9BB29C
:101CDC009B029AB27B691A8017E07B6A1B695B09CD
:101CEC003B637B6A1B6903F01F03002B02D13B6B28
:101CFC00013B3B633B6B9BB29B029BB26FEA434342
:101D0C006FEA53439AB27B691A807B681B681B8805
:101D1C009BB223F4804323F070037B827B8A83F491
:101D2C0080537B827B8A83F400537B827B681A68A6
:101D3C007B8A43F07F4343F47F0343F4004343F037
:101D4C0080039BB213807BE17B681B681A4697F873
:101D5C002D309B0013441B887B85B7F92A30002B50
:101D6C0080F2EA807B681B681A4697F82D309B003E
:101D7C0013441B889AB240F68F7313403B857B68E3
:101D8C001B681A4697F82D309B0013443A8D42F08D
:101D9C00800292B21A8097F82D2013469B001344B0
:101DAC00DB0003F5B4737A6813447B627B6A1B7B9C
:101DBC00002B22D17B681B68B3F850309BB21A46BB
:101DCC007B6A1B78DB00134406335B007A6812686D
:101DDC00134403F580631B88C3F30903FB86FB8E56
:101DEC00002B00F087807B6818687B6A59697B6AD6
:101DFC00DA88FB8E04F09AFA7CE07B6ADB78022BA3
:101E0C0008D17B8D1A46796A786800F027F9034669
:101E1C00FB866FE07B681B681A467B6A1B789B000D
:101E2C0013441B889BB223F4E04323F070037B84A0
:101E3C007B681B681A467B6A1B789B001A447B8C58
:101E4C0043F07F4343F47F0343F4004343F0C00368
:101E5C009BB213807B681B681A467B6A1B789B00BD
:101E6C0013441B889BB203F48043002B21D07B6866
:101E7C001B68B3F850309BB21A467B6A1B78DB00A8
:101E8C00134402335B007A681268134403F58063D1
:101E9C001B88C3F30903FB86FB8E002B2AD07B68BF
:101EAC0018687B6A59697B6A1A89FB8E04F03EFAC2
:101EBC0020E07B681B68B3F850309BB21A467B6AF3
:101ECC001B78DB00134406335B007A6812681344FA
:101EDC0003F580631B88C3F30903FB86FB8E002B81
:101EEC0008D07B6818687B6A59697B6A5A89FB8EB3
:101EFC0004F01CFA7B6ADA69FB8E1A447B6ADA619D
:101F0C007B6A5A69FB8E1A447B6A5A617B6A9B69AD
:101F1C00002B04D0FA8E7B6A1B699A4206D27B6A2C
:101F2C001B781946786806F00DF805E07B681B688D
:101F3C00796A184602F080FD7B8D03F08003002B3C
:101F4C007ED097F82D305A1C13469B001344DB00AF
:101F5C007A6813447B627B681B681A4697F82D30AD
:101F6C009B0013441B889BB223F4E14323F07003C2
:101F7C003B847B681B681A4697F82D309B001A44EB
:101F8C003B8C6FEA43436FEA53439BB213807B6AEB
:101F9C00DB78032B0CD07B6ADB78002B08D07B6AB8
:101FAC00DB78022B46D17B8D03F48073002B41D15F
:101FBC007B681B68B3F850309BB21A467B6A1B785F
:101FCC00DB00134402335B007A681268134403F598
:101FDC0080631B88C3F30903FB837B6A9A69FB8BC1
:101FEC009A4206D97B6A9A69FB8BD21A7B6A9A61F0
:101FFC0002E07B6A00229A617B6A9B69002B06D106
:10200C007B6A1B781946786805F0B7FF18E07B6A85
:10201C005A69FB8B1A447B6A5A617B6ADA69FB8BBF
:10202C001A447B6ADA617B681B68796A184602F08D
:10203C0003FD05E07B8D1A46796A786800F01BF980
:10204C007B681B68B3F844309BB21BB2002BFFF6C5
:10205C000AAD002318463837BD4680BD80B588B020
:10206C0000AFF860B9601346FB80FB8803F4804333
:10207C00002B7ED0FB681B68B3F850309BB21A461D
:10208C00BB681B78DB00134402335B00FA681268F0
:10209C00134403F580631B88C3F309037B83BB687C
:1020AC009A697B8B9A4206D3BB689A697B8BD21A4E
:1020BC00BB689A6102E0BB6800229A61BB689B69AD
:1020CC00002B23D1FB681B681A46BB681B789B004E
:1020DC0013441B889BB223F4804323F070033B838F
:1020EC003B8B83F400533B83FB681B681A46BB682D
:1020FC001B789B001A443B8B43F07F4343F47F03D4
:10210C0043F4004343F080039BB21380FB8803F03D
:10211C004003002B1FD0FB681B681A46BB681B785A
:10212C009B0013441B889BB223F4E04323F0700301
:10213C00FB82FB681B681A46BB681B789B001A4421
:10214C00FB8A43F07F4343F47F0343F4004343F0A3
:10215C00C0039BB213807B8B002B00F08780FB6845
:10216C001868BB685969BB681A897B8B04F0DEF868
:10217C007CE0FB681B68B3F850309BB21A46BB6816
:10218C001B78DB00134406335B00FA6812681344B7
:10219C0003F580631B88C3F309037B83BB689A69CF
:1021AC007B8B9A4206D3BB689A697B8BD21ABB682D
:1021BC009A6102E0BB6800229A61BB689B69002BA4
:1021CC0023D1FB681B681A46BB681B789B00134421
:1021DC001B889BB223F4804323F07003FB83FB8B9F
:1021EC0083F40053FB83FB681B681A46BB681B789F
:1021FC009B001A44FB8B43F07F4343F47F0343F46F
:10220C00004343F080039BB21380FB8803F0400330
:10221C00002B1FD1FB681B681A46BB681B789B0000
:10222C0013441B889BB223F4E04323F07003BB835D
:10223C00FB681B681A46BB681B789B001A44BB8B57
:10224C0043F07F4343F47F0343F4004343F0C00364
:10225C009BB213807B8B002B08D0FB681868BB6883
:10226C005969BB685A897B8B04F060F87B8B1846E4
:10227C002037BD4680BD80B5A2B000AFF860B96014
:10228C001346FB80FB8803F04003002B00F0C78152
:10229C00FB681B68B3F850309BB21A46BB681B78BE
:1022AC00DB00134402335B00FA681268134403F535
:1022BC0080631B88C3F30903A7F84E30BB689A6987
:1022CC00B7F84E309A4207D9BB689A69B7F84E30C6
:1022DC00D21ABB689A6102E0BB6800229A61BB68A3
:1022EC009B69002B40F0B980BB685B78002B26D132
:1022FC00FB681B68BB62FB681B68B3F850309BB271
:10230C001A46BB6A1344BB62BB681B781A01BB6AD2
:10231C00134403F204437B627B6A1B889BB223F455
:10232C00F8439AB27B6A1A807B6A1B889BB26FEA6D
:10233C0043436FEA53439AB27B6A1A801AE0BB6834
:10234C005B78012B16D1FB681B683B63FB681B6831
:10235C00B3F850309BB21A463B6B13443B63BB68DB
:10236C001B781A013B6B134403F20443FB62FB6AB8
:10237C0000221A80FB681B683B62BB685B78002BF1
:10238C0026D1FB681B68BB61FB681B68B3F8503037
:10239C009BB21A46BB691344BB61BB681B781A011C
:1023AC00BB69134403F20C437B617B691B889BB2B2
:1023BC0023F4F8439AB27B691A807B691B889BB221
:1023CC006FEA43436FEA53439AB27B691A8017E072
:1023DC00BB685B78012B13D1FB681B68B3F85030DA
:1023EC009BB21A463B6A13443B62BB681B781A01CA
:1023FC003B6A134403F20C43FB61FB6900221A8015
:10240C00BB681B781946F86805F0B7FDFB8803F428
:10241C008043002B00F0D482FB681B681A46BB6813
:10242C001B789B0013441B889BB223F4E04323F0DE
:10243C0070037B82FB681B681A46BB681B789B0089
:10244C001A447B8A43F07F4343F47F0343F44043B5
:10245C0043F080039BB21380B2E2FB8803F4804309
:10246C00002B21D0FB681B681A46BB681B789B00AD
:10247C0013441B889BB223F4E04323F07003A7F8AA
:10248C004430FB681B681A46BB681B789B001A44D7
:10249C00B7F8443043F07F4343F47F0343F44043A5
:1024AC0043F080039BB21380BB6893F82430012B5C
:1024BC0040F08682BB685A69B7F84E301A44BB6844
:1024CC005A61BB68DA69B7F84E301A44BB68DA61F6
:1024DC00BB681A6ABB681B699A4209D3BB681B6943
:1024EC003B65BB681A6A3B6DD21ABB681A6215E071
:1024FC00BB681B6A002B07D1B7F84E303B65BB6835
:10250C00002283F8242009E0BB68002283F82420F1
:10251C00BB681B6A3B65BB6800221A62BB685B78B0
:10252C00002B55D1FB681B68BB63FB681B68B3F8B9
:10253C0050309BB21A46BB6B1344BB63BB681B7811
:10254C001A01BB6B134403F204437B633B6D002BFA
:10255C0012D17B6B1B889BB223F4F8439AB27B6B32
:10256C001A807B6B1B889BB26FEA43436FEA534321
:10257C009AB27B6B1A8047E03B6D3E2B11D83B6DBA
:10258C005B08BB643B6D03F00103002B02D0BB6CFA
:10259C000133BB64BB6C9BB29B029AB27B6B1A80FF
:1025AC0032E03B6D5B09BB643B6D03F01F03002BFA
:1025BC0002D1BB6C013BBB64BB6C9BB29B029BB25C
:1025CC006FEA43436FEA53439AB27B6B1A801BE06A
:1025DC00BB685B78012B17D1FB681B683B64FB68FD
:1025EC001B68B3F850309BB21A463B6C13443B64E7
:1025FC00BB681B781A013B6C134403F20443FB6366
:10260C003B6D9AB2FB6B1A80FB681868BB68596902
:10261C00BB681A893B6D9BB203F043FED0E1FB68AB
:10262C001B68B3F850309BB21A46BB681B78DB00B2
:10263C00134406335B00FA681268134403F5806395
:10264C001B88C3F30903A7F84E30BB689A69B7F827
:10265C004E309A4207D3BB689A69B7F84E30D21AFB
:10266C00BB689A6102E0BB6800229A61BB689B69F7
:10267C00002B40F0C480BB685B78002B26D1FB6834
:10268C001B68FB66FB681B68B3F850309BB21A469C
:10269C00FB6E1344FB66BB681B781A01FB6E13447C
:1026AC0003F20443BB66BB6E1B889BB223F4F84356
:1026BC009AB2BB6E1A80BB6E1B889BB26FEA434307
:1026CC006FEA53439AB2BB6E1A801AE0BB685B7810
:1026DC00012B16D1FB681B687B67FB681B68B3F882
:1026EC0050309BB21A467B6F13447B67BB681B78D8
:1026FC001A017B6F134403F204433B673B6F0022C8
:10270C001A80FB681B68BB67BB685B78002B2FD1FA
:10271C00FB681B68C7F88030FB681B68B3F8503047
:10272C009BB21A46D7F880301344C7F88030BB6888
:10273C001B781A01D7F88030134403F20C43C7F806
:10274C008430D7F884301B889BB223F4F8439AB2B8
:10275C00D7F884301A80D7F884301B889BB26FEA84
:10276C0043436FEA53439AB2D7F884301A8017E088
:10277C00BB685B78012B13D1FB681B68B3F8503036
:10278C009BB21A46BB6F1344BB67BB681B781A011C
:10279C00BB6F134403F20C43FB67FB6F00221A80E0
:1027AC00BB681B781946F86805F0E7FBFB8803F457
:1027BC008043002B40F00481FB681B681A46BB6801
:1027CC001B789B0013441B889BB223F4E04323F03B
:1027DC007003A7F84630FB681B681A46BB681B7869
:1027EC009B001A44B7F8463043F07F4343F47F0311
:1027FC0043F4404343F080039BB21380E0E0FB883A
:10280C0003F48043002B21D1FB681B681A46BB687C
:10281C001B789B0013441B889BB223F4E04323F0EA
:10282C007003A7F84C30FB681B681A46BB681B7812
:10283C009B001A44B7F84C3043F07F4343F47F03BA
:10284C0043F4404343F080039BB21380BB6893F87E
:10285C002430012B40F0B480BB685A69B7F84E3075
:10286C001A44BB685A61BB68DA69B7F84E301A442F
:10287C00BB68DA61BB681A6ABB681B699A4209D3E8
:10288C00BB681B693B65BB681A6A3B6DD21ABB6897
:10289C001A6215E0BB681B6A002B07D1B7F84E30E3
:1028AC003B65BB68002283F8242009E0BB681B6AE7
:1028BC003B65BB6800221A62BB68002283F82420A7
:1028CC00FB681B687B66BB685B78002B55D1FB688B
:1028DC001B68FB65FB681B68B3F850309BB21A464B
:1028EC00FB6D1344FB65BB681B781A01FB6D13442D
:1028FC0003F20C43BB653B6D002B12D1BB6D1B88E7
:10290C009BB223F4F8439AB2BB6D1A80BB6D1B8843
:10291C009BB26FEA43436FEA53439AB2BB6D1A8082
:10292C0044E03B6D3E2B11D83B6D5B087B653B6DEA
:10293C0003F00103002B02D07B6D01337B657B6DB3
:10294C009BB29B029AB2BB6D1A802FE03B6D5B0968
:10295C007B653B6D03F01F03002B02D17B6D013BAC
:10296C007B657B6D9BB29B029BB26FEA43436FEA24
:10297C0053439AB2BB6D1A8018E0BB685B78012B8D
:10298C0014D1FB681B68B3F850309BB21A467B6EAF
:10299C0013447B66BB681B781A017B6E134403F2ED
:1029AC000C433B663B6D9AB23B6E1A80FB68186811
:1029BC00BB685969BB685A893B6D9BB203F071FCCB
:1029CC00FB681B681A46BB681B789B0013441B886A
:1029DC009BB223F4E04323F040033B823B8A83F019
:1029EC0010033B823B8A83F020033B82FB681B680D
:1029FC001A46BB681B789B001A443B8A43F07F4302
:102A0C0043F47F0343F4004343F080039BB21380F1
:102A1C00002318468837BD4680BD80B487B000AF10
:102A2C00F8607B600B467B8113463B817B8903F00E
:102A3C0080039BB2002B0BD07B8903F007035A1C3D
:102A4C0013469B001344DB00FA6813447B6109E0D6
:102A5C007A8913469B001344DB0003F5B473FA68C0
:102A6C0013447B613B89002B07D17B6900221A73CD
:102A7C007B689AB27B69DA800BE07B6901221A735E
:102A8C007B689AB27B691A817B681B0C9AB27B6952
:102A9C005A81002318461C37BD4680BC7047000085
:102AAC0080B586B000AF78607B68002B01D1012324
:102ABC006CE27B681B6803F00103002B00F087803D
:102ACC00924B5B6803F00C03042B0CD08F4B5B68B0
:102ADC0003F00C03082B12D18C4B5B6803F480338E
:102AEC00B3F5803F0BD1894B1B6803F40033002BEB
:102AFC006CD07B685B68002B68D1012346E27B6855
:102B0C005B68B3F5803F06D1804B1B687F4A43F46A
:102B1C00803313602EE07B685B68002B0CD17B4B01
:102B2C001B687A4A23F480331360784B1B68774A0E
:102B3C0023F4802313601DE07B685B68B3F5A02F42
:102B4C000CD1724B1B68714A43F4802313606F4B9A
:102B5C001B686E4A43F4803313600BE06B4B1B68AD
:102B6C006A4A23F480331360684B1B68674A23F46A
:102B7C00802313607B685B68002B13D0FDF7F2FF9A
:102B8C00386108E0FDF7EEFF02463B69D31A642B6F
:102B9C0001D90323FAE15D4B1B6803F40033002BCE
:102BAC00F0D014E0FDF7DEFF386108E0FDF7DAFF46
:102BBC0002463B69D31A642B01D90323E6E1534B3C
:102BCC001B6803F40033002BF0D100E000BF7B68DE
:102BDC001B6803F00203002B63D04C4B5B6803F0C3
:102BEC000C03002B0BD0494B5B6803F00C03082B38
:102BFC001CD1464B5B6803F48033002B16D1434B3E
:102C0C001B6803F00203002B05D07B681B69012BAA
:102C1C0001D00123BAE13D4B1B6823F0F8027B681D
:102C2C005B69DB00394913430B603AE07B681B6935
:102C3C00002B20D0364B01221A60FDF793FF386130
:102C4C0008E0FDF78FFF02463B69D31A022B01D92E
:102C5C0003239BE12D4B1B6803F00203002BF0D0E8
:102C6C002A4B1B6823F0F8027B685B69DB00274961
:102C7C0013430B6015E0264B00221A60FDF772FF20
:102C8C00386108E0FDF76EFF02463B69D31A022B50
:102C9C0001D903237AE11D4B1B6803F00203002BBF
:102CAC00F0D17B681B6803F00803002B3AD07B68DB
:102CBC009B69002B19D0174B01221A60FDF752FFAC
:102CCC00386108E0FDF74EFF02463B69D31A022B30
:102CDC0001D903235AE10D4B5B6A03F00203002B6D
:102CEC00F0D0012000F0A6FA1CE00A4B00221A607A
:102CFC00FDF738FF38610FE0FDF734FF02463B6902
:102D0C00D31A022B08D9032340E100BF0010024064
:102D1C0000004242800442429E4B5B6A03F0020375
:102D2C00002BE9D17B681B6803F00403002B00F037
:102D3C00A6800023FB75974BDB6903F08053002BB7
:102D4C000DD1944BDB69934A43F08053D361914B83
:102D5C00DB6903F08053BB60BB680123FB758E4BB2
:102D6C001B6803F48073002B18D18B4B1B688A4AA9
:102D7C0043F480731360FDF7F5FE386108E0FDF74E
:102D8C00F1FE02463B69D31A642B01D90323FDE003
:102D9C00814B1B6803F48073002BF0D07B68DB68DD
:102DAC00012B06D17B4B1B6A7A4A43F00103136259
:102DBC002DE07B68DB68002B0CD1764B1B6A754AC7
:102DCC0023F001031362734B1B6A724A23F0040352
:102DDC0013621CE07B68DB68052B0CD16D4B1B6A06
:102DEC006C4A43F0040313626A4B1B6A694A43F052
:102DFC00010313620BE0674B1B6A664A23F0010365
:102E0C001362644B1B6A634A23F0040313627B68EE
:102E1C00DB68002B15D0FDF7A5FE38610AE0FDF745
:102E2C00A1FE02463B69D31A41F28832934201D982
:102E3C000323ABE0574B1B6A03F00203002BEED0CD
:102E4C0014E0FDF78FFE38610AE0FDF78BFE0246B9
:102E5C003B69D31A41F28832934201D9032395E09E
:102E6C004C4B1B6A03F00203002BEED1FB7D012BB4
:102E7C0005D1484BDB69474A23F08053D3617B680B
:102E8C00DB69002B00F08180424B5B6803F00C0384
:102E9C00082B61D07B68DB69022B46D13F4B0022AB
:102EAC001A60FDF75FFE386108E0FDF75BFE024635
:102EBC003B69D31A022B01D9032367E0354B1B68FE
:102ECC0003F00073002BF0D17B681B6AB3F5803FD5
:102EDC0008D1304B5B6823F400327B689B682D492A
:102EEC0013434B602B4B5B6823F474127B68196A99
:102EFC007B685B6A0B43274913434B60274B0122CA
:102F0C001A60FDF72FFE386108E0FDF72BFE024634
:102F1C003B69D31A022B01D9032337E01D4B1B68E5
:102F2C0003F00073002BF0D02FE01C4B00221A6032
:102F3C00FDF718FE386108E0FDF714FE02463B6908
:102F4C00D31A022B01D9032320E0124B1B6803F088
:102F5C000073002BF0D118E07B68DB69012B01D1E9
:102F6C00012313E00B4B5B68FB60FB6803F48032BE
:102F7C007B681B6A9A4206D1FB6803F470127B686B
:102F8C005B6A9A4201D0012300E0002318461837EF
:102F9C00BD4680BD001002400070004060004242FF
:102FAC0080B584B000AF786039607B68002B01D1AC
:102FBC000123D0E06A4B1B6803F007033A689A427E
:102FCC0010D9674B1B6823F0070265493B68134314
:102FDC000B60634B1B6803F007033A689A4201D0FD
:102FEC000123B8E07B681B6803F00203002B20D0A0
:102FFC007B681B6803F00403002B05D0594B5B68FE
:10300C00584A43F4E06353607B681B6803F0080381
:10301C00002B05D0534B5B68524A43F4605353600A
:10302C00504B5B6823F0F0027B689B684D4913435F
:10303C004B607B681B6803F00103002B40D07B685E
:10304C005B68012B07D1474B1B6803F40033002B43
:10305C0015D101237FE07B685B68022B07D1414BC4
:10306C001B6803F00073002B09D1012373E03D4B67
:10307C001B6803F00203002B01D101236BE0394BD9
:10308C005B6823F003027B685B68364913434B6033
:10309C00FDF768FDF8600AE0FDF764FD0246FB6889
:1030AC00D31A41F28832934201D9032353E02D4BBA
:1030BC005B6803F00C027B685B689B009A42EBD167
:1030CC00274B1B6803F007033A689A4210D2244B33
:1030DC001B6823F0070222493B6813430B60204B0B
:1030EC001B6803F007033A689A4201D0012332E0CF
:1030FC007B681B6803F00403002B08D0194B5B683A
:10310C0023F4E0627B68DB68164913434B607B68F1
:10311C001B6803F00803002B09D0124B5B6823F4E7
:10312C0060527B681B69DB000E4913434B6000F057
:10313C0021F802460B4B5B681B0903F00F030A498D
:10314C00CB5C22FA03F3094A1360094B1B6818463F
:10315C00FDF7C6FC002318461037BD4680BD00BFE6
:10316C000020024000100240988D00080000002052
:10317C000400002090B48AB000AF2A4B3C1D0FCB4A
:10318C0084E80F0040F201233B800023FB61002305
:10319C00BB6100237B6200237B6100233B62224BDB
:1031AC005B68FB61FB6903F00C03042B02D0082B5A
:1031BC0003D02DE01D4B3B622DE0FB699B0C03F013
:1031CC000F0307F12802134413F8243C7B61FB69BD
:1031DC0003F48033002B13D0134B5B685B0C03F0B0
:1031EC00010307F12802134413F8283CBB617B69E7
:1031FC000E4A02FB03F2BB69B2FBF3F37B6204E001
:10320C007B690B4A02FB03F37B627B6A3B6202E045
:10321C00064B3B6200BF3B6A18462837BD4690BC44
:10322C00704700BF388D00080010024000127A0071
:10323C0000093D0080B485B000AF78600A4B1B6874
:10324C000A4AA2FB03235B0A7A6802FB03F3FB60C6
:10325C0000BFFB685A1EFA60002BF9D100BF00BFFB
:10326C001437BD4680BC704700000020D34D62105F
:10327C0080B586B000AF786000233B610023FB6013
:10328C007B681B6803F00103002B7DD00023FB75CA
:10329C004F4BDB6903F08053002B0DD14C4BDB699A
:1032AC004B4A43F08053D361494BDB6903F08053A5
:1032BC00BB60BB680123FB75464B1B6803F4807332
:1032CC00002B18D1434B1B68424A43F480731360A4
:1032DC00FDF748FC386108E0FDF744FC02463B6909
:1032EC00D31A642B01D903236DE03A4B1B6803F40A
:1032FC008073002BF0D0364B1B6A03F44073FB60D9
:10330C00FB68002B2ED07B685B6803F44073FA6873
:10331C009A4227D02E4B1B6A23F44073FB602E4B32
:10332C0001221A602C4B00221A60294AFB68136296
:10333C00FB6803F00103002B14D0FDF713FC38617C
:10334C000AE0FDF70FFC02463B69D31A41F28832C2
:10335C00934201D9032336E01D4B1B6A03F0020391
:10336C00002BEED01A4B1B6A23F440727B685B680F
:10337C00174913430B62FB7D012B05D1144BDB6901
:10338C00134A23F08053D3617B681B6803F002035C
:10339C00002B08D00E4B5B6823F440427B689B6883
:1033AC000B4913434B607B681B6803F01003002B25
:1033BC0008D0074B5B6823F480027B68DB68044908
:1033CC0013434B60002318461837BD4680BD00BF21
:1033DC0000100240007000404004424280B582B0B0
:1033EC0000AF78607B68002B01D1012376E07B680D
:1033FC005B6A002B08D17B685B68B3F5827F09D0D0
:10340C007B680022DA6105E07B6800221A617B6828
:10341C0000225A617B6800229A627B6893F85130D3
:10342C00DBB2002B06D17B68002283F85020786831
:10343C00FDF762FA7B68022283F851207B681B68D7
:10344C001A687B681B6822F040021A607B685B6814
:10345C0003F482727B689B6803F404431A437B6811
:10346C00DB6803F400631A437B681B6903F00203F7
:10347C001A437B685B6903F001031A437B689B6901
:10348C0003F400731A437B68DB6903F038031A43B7
:10349C007B681B6A03F0800342EA03017B689B6A2A
:1034AC0003F400527B681B680A431A607B689B69B3
:1034BC001A0C7B681B6802F004025A607B681B685C
:1034CC00DA697B681B6822F40062DA617B6800228F
:1034DC005A657B68012283F851200023184608376F
:1034EC00BD4680BD80B588B000AFF860B9603B6068
:1034FC001346FB800023FB77FB6893F85030012BBD
:10350C0001D1022326E1FB68012283F85020FDF74C
:10351C0029FBB861FB88FB82FB6893F85130DBB266
:10352C00012B02D00223FB770BE1BB68002B02D0EE
:10353C00FB88002B02D10123FB7702E1FB680322FD
:10354C0083F85120FB6800225A65FB68BA681A633D
:10355C00FB68FA889A86FB68FA88DA86FB68002290
:10356C009A63FB6800229A87FB680022DA87FB6863
:10357C0000225A64FB6800221A64FB689B68B3F54E
:10358C00004F0FD1FB681B681A68FB681B6822F0A0
:10359C0040021A60FB681B681A68FB681B6842F4DF
:1035AC0080421A60FB681B681B6803F04003402BC9
:1035BC0007D0FB681B681A68FB681B6842F0400266
:1035CC001A60FB68DB68B3F5006F4BD1FB685B6876
:1035DC00002B02D0FB8A012B3ED1FB681B6B1A8897
:1035EC00FB681B68DA60FB681B6B9A1CFB681A6330
:1035FC00FB68DB8E9BB2013B9AB2FB68DA862BE050
:10360C00FB681B689B6803F00203022B12D1FB685A
:10361C001B6B1A88FB681B68DA60FB681B6B9A1CB7
:10362C00FB681A63FB68DB8E9BB2013B9AB2FB68AA
:10363C00DA8611E0FDF796FA0246BB69D31A3A68AE
:10364C009A4203D83B68B3F1FF3F02D13B68002B91
:10365C0002D10323FB7774E0FB68DB8E9BB2002B5B
:10366C00CED14CE0FB685B68002B02D0FB8A012BAF
:10367C0040D1FB681A6BFB681B680C3312781A700C
:10368C00FB681B6B5A1CFB681A63FB68DB8E9BB2D6
:10369C00013B9AB2FB68DA862CE0FB681B689B68DE
:1036AC0003F00203022B13D1FB681A6BFB681B6837
:1036BC000C3312781A70FB681B6B5A1CFB681A636C
:1036CC00FB68DB8E9BB2013B9AB2FB68DA8611E099
:1036DC00FDF748FA0246BB69D31A3A689A4203D8F6
:1036EC003B68B3F1FF3F02D13B68002B02D10323AF
:1036FC00FB7726E0FB68DB8E9BB2002BCDD1BA6941
:10370C003968F86800F0B8FB0346002B02D0FB6860
:10371C0020225A65FB689B68002B0AD100233B6171
:10372C00FB681B68DB683B61FB681B689B683B6143
:10373C003B69FB685B6D002B02D00123FB7700E03B
:10374C0000BFFB68012283F85120FB68002283F83C
:10375C005020FB7F18462037BD4680BD80B588B011
:10376C0002AFF860B9603B601346FB800023FB7529
:10377C00FB685B68B3F5827F12D1FB689B68002BFA
:10378C000ED1FB68042283F85120FA883B68009321
:10379C001346BA68B968F86800F0F1F80346EAE035
:1037AC00FB6893F85030012B01D10223E3E0FB6856
:1037BC00012283F85020FDF7D5F93861FB6893F8A6
:1037CC005130DBB2012B02D00223FB75CAE0BB687F
:1037DC00002B02D0FB88002B02D10123FB75C1E02A
:1037EC00FB68042283F85120FB6800225A65FB68B1
:1037FC00BA689A63FB68FA889A87FB68FA88DA8752
:10380C00FB6800221A63FB6800229A86FB68002280
:10381C00DA86FB6800221A64FB6800225A64FB6893
:10382C009B68B3F5004F0FD1FB681B681A68FB68E7
:10383C001B6822F040021A60FB681B681A68FB6860
:10384C001B6822F480421A60FB681B681B6803F03B
:10385C004003402B07D0FB681B681A68FB681B6889
:10386C0042F040021A60FB68DB68002B62D12EE04C
:10387C00FB681B689B6803F00103012B15D1FB68E7
:10388C001B6803F10C02FB689B6B1278D2B21A70A6
:10389C00FB689B6B5A1CFB689A63FB68DB8F9BB2C3
:1038AC00013B9AB2FB68DA8711E0FDF75BF902463F
:1038BC003B69D31A3A689A4203D83B68B3F1FF3F8D
:1038CC0002D13B68002B02D10323FB754AE0FB6855
:1038DC00DB8F9BB2002BCBD131E0FB681B689B6864
:1038EC0003F00103012B13D1FB681B68DA68FB683A
:1038FC009B6B92B21A80FB689B6B9A1CFB689A6359
:10390C00FB68DB8F9BB2013B9AB2FB68DA8711E054
:10391C00FDF728F902463B69D31A3A689A4203D854
:10392C003B68B3F1FF3F02D13B68002B02D103236C
:10393C00FB7517E0FB68DB8F9BB2002BCDD13A698E
:10394C003968F86800F046FA0346002B02D0FB6891
:10395C0020225A65FB685B6D002B02D00123FB759E
:10396C0000E000BFFB68012283F85120FB680022B5
:10397C0083F85020FB7D18461837BD4680BD80B5B6
:10398C008CB000AFF860B9607A607B800123FB6279
:10399C00002387F82B30FB6893F85030012B01D1B2
:1039AC0002238AE1FB68012283F85020FDF7DAF844
:1039BC007862FB6893F8513087F82330FB685B68BA
:1039CC00FB617B887B8397F82330012B0FD0FB693D
:1039DC00B3F5827F07D1FB689B68002B03D197F866
:1039EC002330042B03D0022387F82B305BE1BB6818
:1039FC00002B05D07B68002B02D07B88002B03D1D9
:103A0C00012387F82B304EE1FB6893F85130DBB281
:103A1C00042B03D0FB68052283F85120FB6800229D
:103A2C005A65FB687A689A63FB687A88DA87FB6860
:103A3C007A889A87FB68BA681A63FB687A88DA8690
:103A4C00FB687A889A86FB6800221A64FB6800225D
:103A5C005A64FB681B681B6803F04003402B07D0BB
:103A6C00FB681B681A68FB681B6842F040021A600E
:103A7C00FB68DB68B3F5006F78D1FB685B68002BE3
:103A8C0002D07B8B012B66D1FB681B6B1A88FB6801
:103A9C001B68DA60FB681B6B9A1CFB681A63FB687B
:103AAC00DB8E9BB2013B9AB2FB68DA8653E0FB6873
:103ABC001B689B6803F00203022B1BD1FB68DB8E97
:103ACC009BB2002B16D0FB6A012B13D1FB681B6B2E
:103ADC001A88FB681B68DA60FB681B6B9A1CFB6816
:103AEC001A63FB68DB8E9BB2013B9AB2FB68DA86E9
:103AFC000023FB62FB681B689B6803F00103012B2E
:103B0C0019D1FB68DB8F9BB2002B14D0FB681B68B0
:103B1C00DA68FB689B6B92B21A80FB689B6B9A1CF1
:103B2C00FB689A63FB68DB8F9BB2013B9AB2FB6824
:103B3C00DA870123FB62FDF715F802467B6AD31A7C
:103B4C00BA6B9A4207D8BB6BB3F1FF3F03D0032388
:103B5C0087F82B30A7E0FB68DB8E9BB2002BA6D13D
:103B6C00FB68DB8F9BB2002BA1D17CE0FB685B6810
:103B7C00002B02D07B8B012B6BD1FB681A6BFB6883
:103B8C001B680C3312781A70FB681B6B5A1CFB6891
:103B9C001A63FB68DB8E9BB2013B9AB2FB68DA8638
:103BAC0057E0FB681B689B6803F00203022B1CD1D7
:103BBC00FB68DB8E9BB2002B17D0FB6A012B14D158
:103BCC00FB681A6BFB681B680C3312781A70FB6865
:103BDC001B6B5A1CFB681A63FB68DB8E9BB2013BA8
:103BEC009AB2FB68DA860023FB62FB681B689B6851
:103BFC0003F00103012B19D1FB68DB8F9BB2002B67
:103C0C0014D0FB681B68DA68FB689B6BD2B21A7025
:103C1C00FB689B6B5A1CFB689A63FB68DB8F9BB23F
:103C2C00013B9AB2FB68DA870123FB62FCF79AFF2F
:103C3C0002467B6AD31ABA6B9A4203D8BB6BB3F1B8
:103C4C00FF3F02D1BB6B002B03D1032387F82B3032
:103C5C0029E0FB68DB8E9BB2002BA2D1FB68DB8FCB
:103C6C009BB2002B9DD17A6AB96BF86800F004F90D
:103C7C000346002B06D0012387F82B30FB6820224B
:103C8C005A6510E0FB689B68002B0BD100237B610D
:103C9C00FB681B68DB687B61FB681B689B687B614E
:103CAC007B6900E000BFFB68012283F85120FB68B0
:103CBC00002283F8502097F82B3018463037BD4639
:103CCC0080BD000080B588B000AFF860B9603B6083
:103CDC001346FB71FCF746FF0246BB6A9B1A3A6817
:103CEC001344FB61FCF73EFFB861394B1B685B0169
:103CFC001B0DFA6902FB03F37B6154E03B68B3F1E3
:103D0C00FF3F50D0FCF72EFF0246BB69D31AFA696D
:103D1C009A4202D9FB69002B3DD1FB681B685A689B
:103D2C00FB681B6822F0E0025A60FB685B68B3F525
:103D3C00827F11D1FB689B68B3F5004F04D0FB6800
:103D4C009B68B3F5806F07D1FB681B681A68FB682A
:103D5C001B6822F040021A60FB689B6AB3F5005F97
:103D6C000FD1FB681B681A68FB681B6822F40052B1
:103D7C001A60FB681B681A68FB681B6842F40052E7
:103D8C001A60FB68012283F85120FB68002283F83B
:103D9C005020032317E07B69002B01D10023FB612A
:103DAC007B69013B7B61FB681B689A68BB681340AD
:103DBC00BA689A420CBF01230023DBB21A46FB7986
:103DCC009A429BD1002318462037BD4680BD00BFC8
:103DDC000000002080B586B002AFF860B9607A6050
:103DEC00FB685B68B3F5827F11D1FB689B68B3F508
:103DFC00004F04D0FB689B68B3F5806F07D1FB685C
:103E0C001B681A68FB681B6822F040021A60FB688A
:103E1C005B68B3F5827F17D1FB689B68B3F5806F45
:103E2C0012D17B680093BB6800220121F868FFF770
:103E3C0049FF0346002B1AD0FB685B6D43F0200250
:103E4C00FB685A65032313E07B680093BB68002270
:103E5C008021F868FFF736FF0346002B07D0FB687C
:103E6C005B6D43F02002FB685A65032300E00023DE
:103E7C0018461037BD4680BD80B586B002AFF860DD
:103E8C00B9607A607B680093BB6800228021F86877
:103E9C00FFF718FF0346002B07D0FB685B6D43F060
:103EAC002002FB685A65032300E0002318461037F4
:103EBC00BD4680BD84B080B483B000AF786007F19C
:103ECC00140080E80E00002318460C37BD4680BC59
:103EDC0004B0704780B485B000AF78607B68002276
:103EEC00A3F844204FF43F43FB60FB689AB27B6815
:103EFC00A3F84020002318461437BD4680BC7047F9
:103F0C0080B485B000AF78604FF43F43FB607B68B2
:103F1C00B3F840309AB2FB689BB2DB439BB21340C0
:103F2C009AB27B68A3F84020002318461437BD468C
:103F3C0080BC704780B483B000AF78600B46FB70D8
:103F4C00002318460C37BD4680BC704784B080B443
:103F5C0083B000AF786007F1140080E80E007B6836
:103F6C000122A3F840207B680022A3F840207B6844
:103F7C000022A3F844207B680022A3F850200023E1
:103F8C0018460C37BD4680BC04B0704780B49BB05B
:103F9C0000AF78603960002387F867307A683B6837
:103FAC001B789B0013441B889BB223F4EC4323F037
:103FBC007003A7F864303B68DB78032B1FD801A291
:103FCC0052F823F0E13F0008FD3F000813400008C1
:103FDC00EF3F0008B7F8643043F40073A7F864307F
:103FEC0012E0B7F8643043F4C063A7F864300BE018
:103FFC00B7F8643043F48063A7F8643004E001231D
:10400C0087F8673000E000BF7A683B681B789B003C
:10401C001A44B7F8643043F07F4343F47F0343F40E
:10402C00004343F080039BB213807A683B681B7893
:10403C009B0013441B889BB223F4E04323F07003D2
:10404C009AB23B681B789BB21343A7F85E307A6830
:10405C003B681B789B001A44B7F85E3043F07F43F3
:10406C0043F47F0343F4004343F080039BB213807B
:10407C003B681B7B002B40F049813B685B78002B35
:10408C0000F084807B687B617B68B3F850309BB216
:10409C001A467B6913447B613B681B781A017B6968
:1040AC00134403F580633B613B68DB885B089BB280
:1040BC005B009AB23B691A807A683B681B789B005C
:1040CC0013441B88FB81FB8903F04003002B1BD09E
:1040DC007A683B681B789B0013441B889BB223F4C3
:1040EC00E04323F07003BB817A683B681B789B002C
:1040FC001A44BB8943F07F4343F47F0343F40043EA
:10410C0043F0C0039BB213803B68DB78012B20D0BB
:10411C007A683B681B789B0013441B889BB223F482
:10412C00E04323F040033B813B8983F020033B8138
:10413C007A683B681B789B001A443B8943F07F43A9
:10414C0043F47F0343F4004343F080039BB213809A
:10415C007FE27A683B681B789B0013441B889BB2F8
:10416C0023F4E04323F040037B817A683B681B789F
:10417C009B001A447B8943F07F4343F47F0343F451
:10418C00004343F080039BB2138062E27B68FB62C6
:10419C007B68B3F850309BB21A46FB6A1344FB623F
:1041AC003B681B781A01FB6A134403F58163BB62FD
:1041BC003B68DB885B089BB25B009AB2BB6A1A80D7
:1041CC007B687B627B68B3F850309BB21A467B6A83
:1041DC0013447B623B681B781A017B6A134403F21D
:1041EC000C433B623B681B69002B12D13B6A1B885A
:1041FC009BB223F4F8439AB23B6A1A803B6A1B8841
:10420C009BB26FEA43436FEA53439AB23B6A1A80FC
:10421C002FE03B681B693E2B13D83B681B695B087E
:10422C003B663B681B6903F00103002B02D03B6E1D
:10423C0001333B663B6E9BB29B029AB23B6A1A807F
:10424C0017E03B681B695B093B663B681B6903F025
:10425C001F03002B02D13B6E013B3B663B6E9BB2B6
:10426C009B029BB26FEA43436FEA53439AB23B6A99
:10427C001A807A683B681B789B0013441B88FB836D
:10428C00FB8B03F48043002B1BD07A683B681B78B4
:10429C009B0013441B889BB223F4E04323F0700370
:1042AC00BB837A683B681B789B001A44BB8B43F03A
:1042BC007F4343F47F0343F4404343F080039BB2BA
:1042CC0013807A683B681B789B0013441B889BB255
:1042DC0023F4804323F070037B837B8B83F4805324
:1042EC007B837B8B83F400537B837A683B681B78DE
:1042FC009B001A447B8B43F07F4343F47F0343F4CE
:10430C00004343F080039BB21380A2E17A683B68C0
:10431C001B789B0013441B889BB223F4E04323F0CF
:10432C007003A7F85C307A683B681B789B001A44D2
:10433C00B7F85C3043F07F4343F47F0343F401430D
:10434C0043F080039BB213807B68BB657B68B3F83A
:10435C0050309BB21A46BB6D1344BB653B681B784F
:10436C001A01BB6D134403F580637B653B681B89A5
:10437C005B089BB25B009AB27B6D1A807B683B65D5
:10438C007B68B3F850309BB21A463B6D13443B65C7
:10439C003B681B781A013B6D134403F58163FB6486
:1043AC003B685B895B089BB25B009AB2FB6C1A8022
:1043BC003B685B78002B40F091807A683B681B78F7
:1043CC009B0013441B88BB87BB8F03F48043002BDB
:1043DC001BD07A683B681B789B0013441B889BB2EC
:1043EC0023F4E04323F070037B877A683B681B78E7
:1043FC009B001A447B8F43F07F4343F47F0343F4C9
:10440C00404343F080039BB213807A683B681B786F
:10441C009B0013441B883B873B8F03F04003002B0E
:10442C001BD07A683B681B789B0013441B889BB29B
:10443C0023F4E04323F07003FB867A683B681B7817
:10444C009B001A44FB8E43F07F4343F47F0343F4F9
:10445C00004343F0C0039BB213807A683B681B781F
:10446C009B0013441B889BB223F4804323F07003FE
:10447C00BB86BB8E83F48053BB86BB8E83F4005308
:10448C00BB867A683B681B789B001A44BB8E43F052
:10449C007F4343F47F0343F4004343F080039BB218
:1044AC0013807A683B681B789B0013441B889BB273
:1044BC0023F4E04323F040037B867A683B681B7847
:1044CC009B001A447B8E43F07F4343F47F0343F4F9
:1044DC00004343F080039BB21380BAE07A683B68D8
:1044EC001B789B0013441B88A7F84A30B7F84A3056
:1044FC0003F48043002B1DD07A683B681B789B002B
:10450C0013441B889BB223F4E04323F07003A7F8F9
:10451C0048307A683B681B789B001A44B7F84830DF
:10452C0043F07F4343F47F0343F4404343F0800361
:10453C009BB213807A683B681B789B0013441B88E2
:10454C00A7F84630B7F8463003F04003002B1DD0D7
:10455C007A683B681B789B0013441B889BB223F43E
:10456C00E04323F07003A7F844307A683B681B786B
:10457C009B001A44B7F8443043F07F4343F47F0365
:10458C0043F4004343F0C0039BB213803B68DB78D9
:10459C00012B24D07A683B681B789B0013441B8842
:1045AC009BB223F4E04323F04003A7F84030B7F864
:1045BC00403083F02003A7F840307A683B681B78C2
:1045CC009B001A44B7F8403043F07F4343F47F0319
:1045DC0043F4004343F080039BB213801DE07A68E0
:1045EC003B681B789B0013441B889BB223F4E0436D
:1045FC0023F04003A7F842307A683B681B789B0095
:10460C001A44B7F8423043F07F4343F47F0343F43A
:10461C00004343F080039BB213807A683B681B789D
:10462C009B0013441B889BB223F4804323F070033C
:10463C00FB877A683B681B789B001A44FB8F43F01E
:10464C007F4343F47F0343F4004343F080039BB266
:10465C00138097F8673018466C37BD4680BC70479E
:10466C0080B48DB000AF786039603B681B7B002B49
:10467C0040F08E803B685B78002B44D07A683B68B6
:10468C001B789B0013441B88BB81BB8903F0400340
:10469C00002B1BD07A683B681B789B0013441B884B
:1046AC009BB223F4E04323F070037B817A683B6870
:1046BC001B789B001A447B8943F07F4343F47F03B0
:1046CC0043F4004343F0C0039BB213807A683B6809
:1046DC001B789B0013441B889BB223F4E04323F00C
:1046EC0040033B817A683B681B789B001A443B89EA
:1046FC0043F07F4343F47F0343F4004343F08003D0
:10470C009BB2138092E17A683B681B789B00134440
:10471C001B887B827B8A03F48043002B1BD07A6836
:10472C003B681B789B0013441B889BB223F4E0432B
:10473C0023F070033B827A683B681B789B001A4419
:10474C003B8A43F07F4343F47F0343F4404343F0FD
:10475C0080039BB213807A683B681B789B001344E0
:10476C001B889BB223F4804323F07003FB817A688F
:10477C003B681B789B001A44FB8943F07F4343F44E
:10478C007F0343F4004343F080039BB213804DE15D
:10479C003B685B78002B40F0A5807A683B681B78FF
:1047AC009B0013441B883B843B8C03F48043002BFD
:1047BC001BD07A683B681B789B0013441B889BB208
:1047CC0023F4E04323F07003FB837A683B681B7887
:1047DC009B001A44FB8B43F07F4343F47F0343F469
:1047EC00404343F080039BB213807A683B681B788C
:1047FC009B0013441B88BB83BB8B03F04003002B33
:10480C001BD07A683B681B789B0013441B889BB2B7
:10481C0023F4E04323F070037B837A683B681B78B6
:10482C009B001A447B8B43F07F4343F47F0343F498
:10483C00004343F0C0039BB213807A683B681B783B
:10484C009B0013441B889BB223F4E04323F07003BA
:10485C003B837A683B681B789B001A443B8B43F084
:10486C007F4343F47F0343F4004343F0C0039BB204
:10487C0013807A683B681B789B0013441B889BB29F
:10488C0023F4804323F07003FB827A683B681B7827
:10489C009B001A44FB8A43F07F4343F47F0343F4A9
:1048AC00004343F080039BB213807A683B681B780B
:1048BC009B0013441B889BB223F4E04323F040037A
:1048CC00BB827A683B681B789B001A44BB8A43F016
:1048DC007F4343F47F0343F4004343F080039BB2D4
:1048EC001380A3E07A683B681B789B0013441B88F9
:1048FC00FB85FB8D03F48043002B1BD07A683B684F
:10490C001B789B0013441B889BB223F4E04323F0D9
:10491C007003BB857A683B681B789B001A44BB8D7F
:10492C0043F07F4343F47F0343F4404343F080035D
:10493C009BB213807A683B681B789B0013441B88DE
:10494C007B857B8D03F04003002B1BD07A683B6882
:10495C001B789B0013441B889BB223F4E04323F089
:10496C0070033B857A683B681B789B001A443B8D2F
:10497C0043F07F4343F47F0343F4004343F0C0030D
:10498C009BB213807A683B681B789B0013441B888E
:10499C009BB223F4E04323F07003FB847A683B68FA
:1049AC001B789B001A44FB8C43F07F4343F47F033A
:1049BC0043F4404343F080039BB213807A683B6816
:1049CC001B789B0013441B889BB223F4E04323F019
:1049DC004003BB847A683B681B789B001A44BB8CF1
:1049EC0043F07F4343F47F0343F4004343F08003DD
:1049FC009BB213807A683B681B789B0013441B881E
:104A0C009BB223F4804323F070037B847A683B6869
:104A1C001B789B001A447B8C43F07F4343F47F0349
:104A2C0043F4004343F080039BB2138000231846E9
:104A3C003437BD4680BC704780B5CCB000AF3B1D51
:104A4C0018603B4619603B461B685B78012B40F0B5
:104A5C002E873B461B689A693B461B681B699A422A
:104A6C0005D93B461B681B69C7F82C3104E03B4653
:104A7C001B689B69C7F82C313B461B681B7B002BC2
:104A8C0034D13B461B6859693B461B68DA88D7F81A
:104A9C002C319BB2381D006801F003FC07F11003A8
:104AAC003A1D12681A603B1D1B68B3F850309BB25C
:104ABC00194607F1100307F1100212680A441A6034
:104ACC003B461B681B781A0107F110031B68134443
:104ADC0003F2044207F10C031A60D7F82C319AB296
:104AEC0007F10C031B681A8000F0ACBE3B461B6838
:104AFC00DB78022B40F08C833B461B681A6A3B46E2
:104B0C001B681B699A4240F230833B1D1A683B4676
:104B1C001B681B789B0013441B889BB223F4E04357
:104B2C0023F07003A7F856303B1D1A683B461B68F0
:104B3C001B789B001A44B7F8563043F07F4343F47C
:104B4C007F0343F4014343F080039BB213803B4645
:104B5C001B681A6AD7F82C31D21A3B461B681A62AA
:104B6C003B1D1A683B461B681B789B0013441B8833
:104B7C009BB203F04003002B00F09E8107F1300341
:104B8C003A1D12681A603B461B685B78002B7AD181
:104B9C0007F128033A1D12681A603B1D1B68B3F815
:104BAC0050309BB2194607F1280307F1280212680E
:104BBC000A441A603B461B681B781A0107F128034C
:104BCC001B68134403F20C4207F124031A60D7F854
:104BDC002C31002B1AD107F124031B681B889BB2C4
:104BEC0023F4F8439AB207F124031B681A8007F1E7
:104BFC0024031B681B889BB26FEA43436FEA534341
:104C0C009AB207F124031B681A8062E0D7F82C31A2
:104C1C003E2B19D8D7F82C315B08C7F82831D7F8B8
:104C2C002C3103F00103002B04D0D7F828310133C9
:104C3C00C7F82831D7F828319BB29B029AB207F1FA
:104C4C0024031B681A8044E0D7F82C315B09C7F8A1
:104C5C002831D7F82C3103F01F03002B04D1D7F8DF
:104C6C002831013BC7F82831D7F828319BB29B0279
:104C7C009BB26FEA43436FEA53439AB207F12403A2
:104C8C001B681A8025E03B461B685B78012B20D102
:104C9C003B1D1B68B3F850309BB2194607F130032B
:104CAC0007F1300212680A441A603B461B681B78F5
:104CBC001A0107F130031B68134403F20C4207F18D
:104CCC002C031A60D7F82C319AB207F12C031B680D
:104CDC001A803B461B685B89A7F896303B461B68DD
:104CEC005969D7F82C319BB2B7F89620381D00685B
:104CFC0001F0D7FA3B461B685A69D7F82C311A4495
:104D0C003B461B685A613B461B681A6A3B461B684C
:104D1C001B699A4209D93B461B681A6AD7F82C3191
:104D2C00D21A3B461B681A6208E03B461B681B6A9A
:104D3C00C7F82C313B461B6800221A623B461B68A5
:104D4C005B78002B7AD107F118033A1D12681A60B0
:104D5C003B1D1B68B3F850309BB2194607F1180382
:104D6C0007F1180212680A441A603B461B681B784C
:104D7C001A0107F118031B68134403F2044207F1EC
:104D8C0014031A60D7F82C31002B1AD107F1140335
:104D9C001B681B889BB223F4F8439AB207F11403E7
:104DAC001B681A8007F114031B681B889BB26FEAFF
:104DBC0043436FEA53439AB207F114031B681A80FA
:104DCC0067E0D7F82C313E2B19D8D7F82C315B087B
:104DDC00C7F82431D7F82C3103F00103002B04D091
:104DEC00D7F824310133C7F82431D7F824319BB2DA
:104DFC009B029AB207F114031B681A8049E0D7F89A
:104E0C002C315B09C7F82431D7F82C3103F01F0380
:104E1C00002B04D1D7F82431013BC7F82431D7F843
:104E2C0024319BB29B029BB26FEA43436FEA53431C
:104E3C009AB207F114031B681A802AE03B461B68E0
:104E4C005B78012B25D107F120033A1D12681A60FB
:104E5C003B1D1B68B3F850309BB2194607F1200379
:104E6C0007F1200212680A441A603B461B681B7843
:104E7C001A0107F120031B68134403F2044207F1E3
:104E8C001C031A60D7F82C319AB207F11C031B686B
:104E9C001A803B461B681B89A7F896303B461B685B
:104EAC005969D7F82C319BB2B7F89620381D006899
:104EBC0001F0F7F900F0C6BC3B461B685B78002B91
:104ECC0064D13B1D1B68BB643B1D1B68B3F85030A1
:104EDC009BB21A46BB6C1344BB643B461B681B78E5
:104EEC001A01BB6C134403F204437B64D7F82C31D6
:104EFC00002B12D17B6C1B889BB223F4F8439AB223
:104F0C007B6C1A807B6C1B889BB26FEA43436FEA05
:104F1C0053439AB27B6C1A8057E0D7F82C313E2B56
:104F2C0017D8D7F82C315B08C7F82031D7F82C31BB
:104F3C0003F00103002B04D0D7F820310133C7F85C
:104F4C002031D7F820319BB29B029AB27B6C1A802D
:104F5C003BE0D7F82C315B09C7F82031D7F82C315E
:104F6C0003F01F03002B04D1D7F82031013BC7F805
:104F7C002031D7F820319BB29B029BB26FEA43439E
:104F8C006FEA53439AB27B6C1A801EE03B461B6857
:104F9C005B78012B19D13B1D1B683B653B1D1B68C6
:104FAC00B3F850309BB21A463B6D13443B653B46FD
:104FBC001B681B781A013B6D134403F20443FB641A
:104FCC00D7F82C319AB2FB6C1A803B461B681B89B4
:104FDC00A7F896303B461B685969D7F82C319BB221
:104FEC00B7F89620381D006801F05BF93B461B684A
:104FFC005A69D7F82C311A443B461B685A613B4618
:10500C001B681A6A3B461B681B699A4209D93B46C6
:10501C001B681A6AD7F82C31D21A3B461B681A62E5
:10502C0008E03B461B681B6AC7F82C313B461B68E3
:10503C0000221A623B1D1B683B643B461B685B7875
:10504C00002B64D13B1D1B68BB633B1D1B68B3F875
:10505C0050309BB21A46BB6B1344BB633B461B6878
:10506C001B781A01BB6B134403F20C437B63D7F818
:10507C002C31002B12D17B6B1B889BB223F4F84391
:10508C009AB27B6B1A807B6B1B889BB26FEA434393
:10509C006FEA53439AB27B6B1A8054E0D7F82C31E9
:1050AC003E2B17D8D7F82C315B08C7F81C31D7F832
:1050BC002C3103F00103002B04D0D7F81C31013341
:1050CC00C7F81C31D7F81C319BB29B029AB27B6B90
:1050DC001A8038E0D7F82C315B09C7F81C31D7F8A7
:1050EC002C3103F01F03002B04D1D7F81C31013BEA
:1050FC00C7F81C31D7F81C319BB29B029BB26FEAEC
:10510C0043436FEA53439AB27B6B1A801BE03B46D6
:10511C001B685B78012B16D13B1D1B68B3F8503014
:10512C009BB21A463B6C13443B643B461B681B7892
:10513C001A013B6C134403F20C43FB63D7F82C317C
:10514C009AB2FB6B1A803B461B685B89A7F89630BA
:10515C003B461B685969D7F82C319BB2B7F896209F
:10516C00381D006801F09DF86CE33B461B681B6A18
:10517C00C7F82C313B1D1A683B461B681B789B00FB
:10518C0013441B889BB223F4E24323F07003A7F86B
:10519C0062303B1D1A683B461B681B789B001A4407
:1051AC00B7F8623043F07F4343F47F0343F400438A
:1051BC0043F080039BB213803B1D1B68FB653B1DBA
:1051CC001B68B3F850309BB21A46FB6D1344FB6559
:1051DC003B461B681B781A01FB6D134403F2044316
:1051EC00BB65D7F82C319AB2BB6D1A803B461B6855
:1051FC001B89A7F896303B461B685969D7F82C31A8
:10520C009BB2B7F89620381D006801F04AF819E3F4
:10521C003B1D1A683B461B681B789B0013441B887C
:10522C009BB223F4E04323F07003A7F8A8303B1D96
:10523C001A683B461B681B789B001A44B7F8A830C9
:10524C0043F07F4343F47F0343F4014343F0800373
:10525C009BB213803B461B681A6AD7F82C31D21AC2
:10526C003B461B681A623B1D1A683B461B681B7841
:10527C009B0013441B889BB203F04003002B00F0EF
:10528C0062813B1D1B68C7F880303B461B685B780E
:10529C00002B64D13B1D1B68BB673B1D1B68B3F81F
:1052AC0050309BB21A46BB6F1344BB673B461B681E
:1052BC001B781A01BB6F134403F20C437B67D7F8BE
:1052CC002C31002B12D17B6F1B889BB223F4F8433B
:1052DC009AB27B6F1A807B6F1B889BB26FEA434339
:1052EC006FEA53439AB27B6F1A8057E0D7F82C3190
:1052FC003E2B17D8D7F82C315B08C7F81831D7F8E4
:10530C002C3103F00103002B04D0D7F818310133F2
:10531C00C7F81831D7F818319BB29B029AB27B6F41
:10532C001A803BE0D7F82C315B09C7F81831D7F855
:10533C002C3103F01F03002B04D1D7F81831013B9B
:10534C00C7F81831D7F818319BB29B029BB26FEAA1
:10535C0043436FEA53439AB27B6F1A801EE03B467D
:10536C001B685B78012B19D13B1D1B68B3F85030BF
:10537C009BB21A46D7F880301344C7F880303B46AE
:10538C001B681B781A01D7F88030134403F20C43C6
:10539C00FB67D7F82C319AB2FB6F1A803B461B681F
:1053AC005B89A7F896303B461B685969D7F82C31B6
:1053BC009BB2B7F89620381D006800F072FF3B4690
:1053CC001B685A69D7F82C311A443B461B685A6142
:1053DC003B461B681A6A3B461B681B699A4209D9F3
:1053EC003B461B681A6AD7F82C31D21A3B461B680D
:1053FC001A6208E03B461B681B6AC7F82C313B4617
:10540C001B6800221A62D7F82C31002B00F01A828C
:10541C003B461B685B78002B64D13B1D1B68BB664D
:10542C003B1D1B68B3F850309BB21A46BB6E13443D
:10543C00BB663B461B681B781A01BB6E134403F218
:10544C0004437B66D7F82C31002B12D17B6E1B8862
:10545C009BB223F4F8439AB27B6E1A807B6E1B8846
:10546C009BB26FEA43436FEA53439AB27B6E1A8046
:10547C0057E0D7F82C313E2B17D8D7F82C315B08D6
:10548C00C7F81431D7F82C3103F00103002B04D0EA
:10549C00D7F814310133C7F81431D7F814319BB253
:1054AC009B029AB27B6E1A803BE0D7F82C315B09D9
:1054BC00C7F81431D7F82C3103F01F03002B04D19B
:1054CC00D7F81431013BC7F81431D7F814319BB21B
:1054DC009B029BB26FEA43436FEA53439AB27B6ED3
:1054EC001A801EE03B461B685B78012B19D13B1DD3
:1054FC001B683B673B1D1B68B3F850309BB21A46C8
:10550C003B6F13443B673B461B681B781A013B6F90
:10551C00134403F20443FB66D7F82C319AB2FB6EAA
:10552C001A803B461B681B89A7F896303B461B68C4
:10553C005969D7F82C319BB2B7F89620381D006802
:10554C0000F0AFFE7EE13B461B685B78002B6FD111
:10555C003B1D1B68C7F89C303B1D1B68B3F85030D3
:10556C009BB21A46D7F89C301344C7F89C303B4684
:10557C001B681B781A01D7F89C30134403F20443C0
:10558C00C7F89830D7F82C31002B16D1D7F89830B3
:10559C001B889BB223F4F8439AB2D7F898301A8040
:1055AC00D7F898301B889BB26FEA43436FEA53439A
:1055BC009AB2D7F898301A805FE0D7F82C313E2B8E
:1055CC0018D8D7F82C315B08C7F81031D7F82C3124
:1055DC0003F00103002B04D0D7F810310133C7F8C6
:1055EC001031D7F810319BB29B029AB2D7F8983091
:1055FC001A8042E0D7F82C315B09C7F81031D7F884
:10560C002C3103F01F03002B04D1D7F81031013BD0
:10561C00C7F81031D7F810319BB29B029BB26FEADE
:10562C0043436FEA53439AB2D7F898301A8024E078
:10563C003B461B685B78012B1FD13B1D1B68C7F8D1
:10564C00A4303B1D1B68B3F850309BB21A46D7F8F8
:10565C00A4301344C7F8A4303B461B681B781A01CE
:10566C00D7F8A430134403F20443C7F8A030D7F89A
:10567C002C319AB2D7F8A0301A803B461B681B8994
:10568C00A7F896303B461B685969D7F82C319BB26A
:10569C00B7F89620381D006800F003FE3B461B68E7
:1056AC005A69D7F82C311A443B461B685A613B4661
:1056BC001B681A6A3B461B681B699A4209D93B4610
:1056CC001B681A6AD7F82C31D21A3B461B681A622F
:1056DC0008E03B461B681B6AC7F82C313B461B682D
:1056EC0000221A62D7F82C31002B00F0AB803B1D46
:1056FC001B68C7F890303B461B685B78002B6FD15A
:10570C003B1D1B68C7F888303B1D1B68B3F8503035
:10571C009BB21A46D7F888301344C7F888303B46FA
:10572C001B681B781A01D7F88830134403F20C431A
:10573C00C7F88430D7F82C31002B16D1D7F8843029
:10574C001B889BB223F4F8439AB2D7F884301A80A2
:10575C00D7F884301B889BB26FEA43436FEA5343FC
:10576C009AB2D7F884301A805BE0D7F82C313E2BF4
:10577C0018D8D7F82C315B08C7F80C31D7F82C3176
:10578C0003F00103002B04D0D7F80C310133C7F818
:10579C000C31D7F80C319BB29B029AB2D7F88430FB
:1057AC001A803EE0D7F82C315B09C7F80C31D7F8DA
:1057BC002C3103F01F03002B04D1D7F80C31013B23
:1057CC00C7F80C31D7F80C319BB29B029BB26FEA35
:1057DC0043436FEA53439AB2D7F884301A8020E0DF
:1057EC003B461B685B78012B1BD13B1D1B68B3F838
:1057FC0050309BB21A46D7F890301344C7F890300B
:10580C003B461B681B781A01D7F89030134403F2FF
:10581C000C43C7F88C30D7F82C319AB2D7F88C30AF
:10582C001A803B461B685B89A7F896303B461B6881
:10583C005969D7F82C319BB2B7F89620381D0068FF
:10584C0000F02FFD3B1D1A683B461B681B789B0024
:10585C0013441B889BB207F10A0223F4E04323F0A4
:10586C004003138007F10A0307F10A02128882F041
:10587C0010021A8007F10A0307F10A02128882F05B
:10588C0020021A803B1D1A683B461B681B789B0044
:10589C001A4407F10A031B8843F07F4343F47F0348
:1058AC0043F4004343F080039BB21380B5E33B46C3
:1058BC001B681B7B002B40F090803B461B689A6951
:1058CC003B461B681B699A420ED93B461B681B69F9
:1058DC00C7F82C313B461B689A69D7F82C31D21A81
:1058EC003B461B689A6108E03B461B689B69C7F8FE
:1058FC002C313B461B6800229A613B1D1B68C7F884
:10590C00B0303B1D1B68B3F850309BB21A46D7F829
:10591C00B0301344C7F8B0303B461B681B781A01F3
:10592C00D7F8B030134403F20C43C7F8AC30D7F8B7
:10593C002C31002B16D1D7F8AC301B889BB223F43A
:10594C00F8439AB2D7F8AC301A80D7F8AC301B8831
:10595C009BB26FEA43436FEA53439AB2D7F8AC3029
:10596C001A802CE3D7F82C313E2B18D8D7F82C31D1
:10597C005B08C7F80831D7F82C3103F00103002B72
:10598C0004D0D7F808310133C7F80831D7F80831FB
:10599C009BB29B029AB2D7F8AC301A800FE3D7F8BF
:1059AC002C315B09C7F80831D7F82C3103F01F03F1
:1059BC00002B04D1D7F80831013BC7F80831D7F8D0
:1059CC0008319BB29B029BB26FEA43436FEA53438D
:1059DC009AB2D7F8AC301A80F1E23B461B68DB7800
:1059EC00022B40F08F813B461B685B78002B75D1F6
:1059FC003B1D1B68C7F8CC303B1D1B68B3F85030FF
:105A0C009BB21A46D7F8CC301344C7F8CC303B467F
:105A1C001B681B781A01D7F8CC30134403F20443EB
:105A2C00C7F8C8303B461B681B69002B16D1D7F84A
:105A3C00C8301B889BB223F4F8439AB2D7F8C8300D
:105A4C001A80D7F8C8301B889BB26FEA43436FEAC1
:105A5C0053439AB2D7F8C8301A8065E03B461B68AE
:105A6C001B693E2B1AD83B461B681B695B08C7F8A1
:105A7C0004313B461B681B6903F00103002B04D067
:105A8C00D7F804310133C7F80431D7F804319BB28D
:105A9C009B029AB2D7F8C8301A8045E03B461B6887
:105AAC001B695B09C7F804313B461B681B6903F093
:105ABC001F03002B04D1D7F80431013BC7F8043184
:105ACC00D7F804319BB29B029BB26FEA43436FEA57
